{
  "contractName": "SimpleStorage",
  "abi": [
    {
      "constant": true,
      "inputs": [],
      "name": "userCount",
      "outputs": [
        {
          "name": "",
          "type": "uint256"
        }
      ],
      "payable": false,
      "stateMutability": "view",
      "type": "function",
      "signature": "0x07973ccf"
    },
    {
      "constant": true,
      "inputs": [
        {
          "name": "",
          "type": "uint256"
        }
      ],
      "name": "posts",
      "outputs": [
        {
          "name": "postIpfsHash",
          "type": "string"
        },
        {
          "name": "date",
          "type": "string"
        },
        {
          "name": "author",
          "type": "address"
        }
      ],
      "payable": false,
      "stateMutability": "view",
      "type": "function",
      "signature": "0x0b1e7f83"
    },
    {
      "constant": true,
      "inputs": [],
      "name": "postCount",
      "outputs": [
        {
          "name": "",
          "type": "uint256"
        }
      ],
      "payable": false,
      "stateMutability": "view",
      "type": "function",
      "signature": "0x17906c2e"
    },
    {
      "constant": true,
      "inputs": [],
      "name": "candidatesCount",
      "outputs": [
        {
          "name": "",
          "type": "uint256"
        }
      ],
      "payable": false,
      "stateMutability": "view",
      "type": "function",
      "signature": "0x2d35a8a2"
    },
    {
      "constant": true,
      "inputs": [
        {
          "name": "",
          "type": "uint256"
        }
      ],
      "name": "users",
      "outputs": [
        {
          "name": "id",
          "type": "uint256"
        },
        {
          "name": "userIpfsHash",
          "type": "string"
        },
        {
          "name": "friendsCount",
          "type": "uint256"
        },
        {
          "name": "friends",
          "type": "string"
        }
      ],
      "payable": false,
      "stateMutability": "view",
      "type": "function",
      "signature": "0x365b98b2"
    },
    {
      "constant": true,
      "inputs": [
        {
          "name": "",
          "type": "uint256"
        }
      ],
      "name": "userAddressList",
      "outputs": [
        {
          "name": "",
          "type": "address"
        }
      ],
      "payable": false,
      "stateMutability": "view",
      "type": "function",
      "signature": "0xa64699a3"
    },
    {
      "constant": false,
      "inputs": [
        {
          "name": "x",
          "type": "string"
        }
      ],
      "name": "set",
      "outputs": [],
      "payable": false,
      "stateMutability": "nonpayable",
      "type": "function",
      "signature": "0x4ed3885e"
    },
    {
      "constant": true,
      "inputs": [],
      "name": "get",
      "outputs": [
        {
          "name": "",
          "type": "string"
        }
      ],
      "payable": false,
      "stateMutability": "view",
      "type": "function",
      "signature": "0x6d4ce63c"
    },
    {
      "constant": false,
      "inputs": [
        {
          "name": "_userIpfsHash",
          "type": "string"
        },
        {
          "name": "_address",
          "type": "uint256"
        }
      ],
      "name": "addNewUser",
      "outputs": [],
      "payable": false,
      "stateMutability": "nonpayable",
      "type": "function",
      "signature": "0xad3b5577"
    },
    {
      "constant": false,
      "inputs": [
        {
          "name": "_userIpfsHash",
          "type": "string"
        },
        {
          "name": "_address",
          "type": "uint256"
        }
      ],
      "name": "updateUser",
      "outputs": [],
      "payable": false,
      "stateMutability": "nonpayable",
      "type": "function",
      "signature": "0x2bf9866f"
    },
    {
      "constant": false,
      "inputs": [
        {
          "name": "_address",
          "type": "uint256"
        }
      ],
      "name": "getUserByAddress",
      "outputs": [
        {
          "name": "id",
          "type": "uint256"
        },
        {
          "name": "userIpfsHash",
          "type": "string"
        },
        {
          "name": "friends",
          "type": "string"
        }
      ],
      "payable": false,
      "stateMutability": "nonpayable",
      "type": "function",
      "signature": "0x2ab59520"
    },
    {
      "constant": false,
      "inputs": [
        {
          "name": "_postIpfsHash",
          "type": "string"
        },
        {
          "name": "_date",
          "type": "string"
        }
      ],
      "name": "addNewPost",
      "outputs": [],
      "payable": false,
      "stateMutability": "nonpayable",
      "type": "function",
      "signature": "0x3a3a1ec5"
    },
    {
      "constant": false,
      "inputs": [
        {
          "name": "_address",
          "type": "uint256"
        },
        {
          "name": "_friends",
          "type": "string"
        }
      ],
      "name": "addFriend",
      "outputs": [],
      "payable": false,
      "stateMutability": "nonpayable",
      "type": "function",
      "signature": "0x56a7d90a"
    }
  ],
  "bytecode": "0x608060405234801561001057600080fd5b506113fb806100206000396000f3fe6080604052600436106100c5576000357c0100000000000000000000000000000000000000000000000000000000900463ffffffff16806307973ccf146100ca5780630b1e7f83146100f557806317906c2e146102485780632ab59520146102735780632bf9866f1461039a5780632d35a8a21461046c578063365b98b2146104975780633a3a1ec5146105c55780634ed3885e1461072457806356a7d90a146107ec5780636d4ce63c146108be578063a64699a31461094e578063ad3b5577146109c9575b600080fd5b3480156100d657600080fd5b506100df610a9b565b6040518082815260200191505060405180910390f35b34801561010157600080fd5b5061012e6004803603602081101561011857600080fd5b8101908080359060200190929190505050610aa1565b6040518080602001806020018473ffffffffffffffffffffffffffffffffffffffff1673ffffffffffffffffffffffffffffffffffffffff168152602001838103835286818151815260200191508051906020019080838360005b838110156101a4578082015181840152602081019050610189565b50505050905090810190601f1680156101d15780820380516001836020036101000a031916815260200191505b50838103825285818151815260200191508051906020019080838360005b8381101561020a5780820151818401526020810190506101ef565b50505050905090810190601f1680156102375780820380516001836020036101000a031916815260200191505b509550505050505060405180910390f35b34801561025457600080fd5b5061025d610c1b565b6040518082815260200191505060405180910390f35b34801561027f57600080fd5b506102ac6004803603602081101561029657600080fd5b8101908080359060200190929190505050610c21565b604051808481526020018060200180602001838103835285818151815260200191508051906020019080838360005b838110156102f65780820151818401526020810190506102db565b50505050905090810190601f1680156103235780820380516001836020036101000a031916815260200191505b50838103825284818151815260200191508051906020019080838360005b8381101561035c578082015181840152602081019050610341565b50505050905090810190601f1680156103895780820380516001836020036101000a031916815260200191505b509550505050505060405180910390f35b3480156103a657600080fd5b5061046a600480360360408110156103bd57600080fd5b81019080803590602001906401000000008111156103da57600080fd5b8201836020820111156103ec57600080fd5b8035906020019184600183028401116401000000008311171561040e57600080fd5b91908080601f016020809104026020016040519081016040528093929190818152602001838380828437600081840152601f19601f82011690508083019250505050505050919291929080359060200190929190505050610dca565b005b34801561047857600080fd5b50610481610dff565b6040518082815260200191505060405180910390f35b3480156104a357600080fd5b506104d0600480360360208110156104ba57600080fd5b8101908080359060200190929190505050610e05565b604051808581526020018060200184815260200180602001838103835286818151815260200191508051906020019080838360005b83811015610520578082015181840152602081019050610505565b50505050905090810190601f16801561054d5780820380516001836020036101000a031916815260200191505b50838103825284818151815260200191508051906020019080838360005b8381101561058657808201518184015260208101905061056b565b50505050905090810190601f1680156105b35780820380516001836020036101000a031916815260200191505b50965050505050505060405180910390f35b3480156105d157600080fd5b50610722600480360360408110156105e857600080fd5b810190808035906020019064010000000081111561060557600080fd5b82018360208201111561061757600080fd5b8035906020019184600183028401116401000000008311171561063957600080fd5b91908080601f016020809104026020016040519081016040528093929190818152602001838380828437600081840152601f19601f8201169050808301925050505050505091929192908035906020019064010000000081111561069c57600080fd5b8201836020820111156106ae57600080fd5b803590602001918460018302840111640100000000831117156106d057600080fd5b91908080601f016020809104026020016040519081016040528093929190818152602001838380828437600081840152601f19601f820116905080830192505050505050509192919290505050610f65565b005b34801561073057600080fd5b506107ea6004803603602081101561074757600080fd5b810190808035906020019064010000000081111561076457600080fd5b82018360208201111561077657600080fd5b8035906020019184600183028401116401000000008311171561079857600080fd5b91908080601f016020809104026020016040519081016040528093929190818152602001838380828437600081840152601f19601f820116905080830192505050505050509192919290505050611046565b005b3480156107f857600080fd5b506108bc6004803603604081101561080f57600080fd5b81019080803590602001909291908035906020019064010000000081111561083657600080fd5b82018360208201111561084857600080fd5b8035906020019184600183028401116401000000008311171561086a57600080fd5b91908080601f016020809104026020016040519081016040528093929190818152602001838380828437600081840152601f19601f820116905080830192505050505050509192919290505050611060565b005b3480156108ca57600080fd5b506108d36110a9565b6040518080602001828103825283818151815260200191508051906020019080838360005b838110156109135780820151818401526020810190506108f8565b50505050905090810190601f1680156109405780820380516001836020036101000a031916815260200191505b509250505060405180910390f35b34801561095a57600080fd5b506109876004803603602081101561097157600080fd5b810190808035906020019092919050505061114b565b604051808273ffffffffffffffffffffffffffffffffffffffff1673ffffffffffffffffffffffffffffffffffffffff16815260200191505060405180910390f35b3480156109d557600080fd5b50610a99600480360360408110156109ec57600080fd5b8101908080359060200190640100000000811115610a0957600080fd5b820183602082011115610a1b57600080fd5b80359060200191846001830284011164010000000083111715610a3d57600080fd5b91908080601f016020809104026020016040519081016040528093929190818152602001838380828437600081840152601f19601f8201169050808301925050505050505091929192908035906020019092919050505061117e565b005b60025481565b6005602052806000526040600020600091509050806000018054600181600116156101000203166002900480601f016020809104026020016040519081016040528092919081815260200182805460018160011615610100020316600290048015610b4d5780601f10610b2257610100808354040283529160200191610b4d565b820191906000526020600020905b815481529060010190602001808311610b3057829003601f168201915b505050505090806001018054600181600116156101000203166002900480601f016020809104026020016040519081016040528092919081815260200182805460018160011615610100020316600290048015610beb5780601f10610bc057610100808354040283529160200191610beb565b820191906000526020600020905b815481529060010190602001808311610bce57829003601f168201915b5050505050908060020160009054906101000a900473ffffffffffffffffffffffffffffffffffffffff16905083565b60015481565b6000606080610c2e611281565b600360008681526020019081526020016000206080604051908101604052908160008201548152602001600182018054600181600116156101000203166002900480601f016020809104026020016040519081016040528092919081815260200182805460018160011615610100020316600290048015610cf05780601f10610cc557610100808354040283529160200191610cf0565b820191906000526020600020905b815481529060010190602001808311610cd357829003601f168201915b5050505050815260200160028201548152602001600382018054600181600116156101000203166002900480601f016020809104026020016040519081016040528092919081815260200182805460018160011615610100020316600290048015610d9c5780601f10610d7157610100808354040283529160200191610d9c565b820191906000526020600020905b815481529060010190602001808311610d7f57829003601f168201915b5050505050815250509050806000015181602001518260600151819150809050935093509350509193909250565b600060036000838152602001908152602001600020905082816001019080519060200190610df99291906112aa565b50505050565b60065481565b6003602052806000526040600020600091509050806000015490806001018054600181600116156101000203166002900480601f016020809104026020016040519081016040528092919081815260200182805460018160011615610100020316600290048015610eb75780601f10610e8c57610100808354040283529160200191610eb7565b820191906000526020600020905b815481529060010190602001808311610e9a57829003601f168201915b505050505090806002015490806003018054600181600116156101000203166002900480601f016020809104026020016040519081016040528092919081815260200182805460018160011615610100020316600290048015610f5b5780601f10610f3057610100808354040283529160200191610f5b565b820191906000526020600020905b815481529060010190602001808311610f3e57829003601f168201915b5050505050905084565b6001600081548092919060010191905055506060604051908101604052808381526020018281526020013373ffffffffffffffffffffffffffffffffffffffff168152506005600060015481526020019081526020016000206000820151816000019080519060200190610fda92919061132a565b506020820151816001019080519060200190610ff792919061132a565b5060408201518160020160006101000a81548173ffffffffffffffffffffffffffffffffffffffff021916908373ffffffffffffffffffffffffffffffffffffffff1602179055509050505050565b806000908051906020019061105c9291906112aa565b5050565b60006003600084815260200190815260200160002090508060020160008154809291906001019190505550818160030190805190602001906110a39291906112aa565b50505050565b606060008054600181600116156101000203166002900480601f0160208091040260200160405190810160405280929190818152602001828054600181600116156101000203166002900480156111415780601f1061111657610100808354040283529160200191611141565b820191906000526020600020905b81548152906001019060200180831161112457829003601f168201915b5050505050905090565b60046020528060005260406000206000915054906101000a900473ffffffffffffffffffffffffffffffffffffffff1681565b6002600081548092919060010191905055503360046000600254815260200190815260200160002060006101000a81548173ffffffffffffffffffffffffffffffffffffffff021916908373ffffffffffffffffffffffffffffffffffffffff16021790555060806040519081016040528060025481526020018381526020016000815260200160206040519081016040528060008152508152506003600083815260200190815260200160002060008201518160000155602082015181600101908051906020019061125292919061132a565b5060408201518160020155606082015181600301908051906020019061127992919061132a565b509050505050565b608060405190810160405280600081526020016060815260200160008152602001606081525090565b828054600181600116156101000203166002900490600052602060002090601f016020900481019282601f106112eb57805160ff1916838001178555611319565b82800160010185558215611319579182015b828111156113185782518255916020019190600101906112fd565b5b50905061132691906113aa565b5090565b828054600181600116156101000203166002900490600052602060002090601f016020900481019282601f1061136b57805160ff1916838001178555611399565b82800160010185558215611399579182015b8281111561139857825182559160200191906001019061137d565b5b5090506113a691906113aa565b5090565b6113cc91905b808211156113c85760008160009055506001016113b0565b5090565b9056fea165627a7a72305820c387972ed86a3a3cf5787c5e70405e5e93888e932b0f573b608d3ea9df23097e0029",
  "source": "pragma solidity 0.5.0;\n\ncontract SimpleStorage {\n\n//  uint256 masterAddress = 0x7CacEE641aa61292c6035906384811186B5F3A2D;\n\n\n  string ipfsHash;\n  // Model a Candidate\n  struct User {\n      uint id;\n      string userIpfsHash;\n      uint friendsCount;\n      string friends;\n  }\n\n  struct Post{\n    string postIpfsHash;\n    string date;\n    address author;\n  }\n\n  uint public postCount;\n\n  // Store Candidates Count\n  uint public userCount;\n\n  mapping(uint256 => User) public users;\n\n  mapping(uint => address) public userAddressList;\n\n  mapping(uint => Post) public posts;\n    // Store Candidates Count\n    uint public candidatesCount;\n\n  function set(string memory x) public {\n    ipfsHash = x;\n  }\n\n  function get() public view returns (string memory) {\n    return ipfsHash;\n  }\n\n  function addNewUser(string memory _userIpfsHash, uint256 _address) public{\n    userCount ++;\n    userAddressList[userCount] = msg.sender;\n    users[_address] = User(userCount, _userIpfsHash , 0, '');\n//    users[_address] = User(userCount, _userIpfsHash , _friends);\n  }\n\n  function updateUser(string memory _userIpfsHash, uint256 _address) public{\n    User storage  u = users[_address];\n//    users[_address] = User(userCount, _userIpfsHash, u.friendsCount, u.friends);\n    u.userIpfsHash = _userIpfsHash;\n//    users[_address] = User(userCount, _userIpfsHash, u.friends);\n  }\n\n  function getUserByAddress(uint256 _address) public returns (uint id, string memory userIpfsHash, string memory friends) {\n    // copy the data into memory\n    User memory u = users[_address];\n\n    // break the struct's members out into a tuple\n    // in the same order that they appear in the struct\n    return (u.id, u.userIpfsHash, u.friends);\n  }\n\n\n  function addNewPost(string memory _postIpfsHash, string memory _date) public{\n    postCount++;\n    posts[postCount] = Post(_postIpfsHash, _date, msg.sender);\n  }\n\n//  function getMasterAddress() public returns (uint256 masterAddress){\n//    return masterAddress;\n//  }\n\n  function addFriend(uint256 _address, string memory _friends) public{\n    User storage  u = users[_address];\n//    f.push(_friend);\n    u.friendsCount++;\n//    u.friends =  concat(u.friends,';');\n    u.friends = _friends;\n//    users[_address] = User(userCount, u.userIpfsHash, u.friendsCount, u.friends);\n//    users[_address] = User(userCount, u.userIpfsHash, u.friends);\n  }\n\n  function concat(string memory _a, string memory _b)private view returns (string memory) {\n    bytes memory bytes_a = bytes(_a);\n    bytes memory bytes_b = bytes(_b);\n    string memory length_ab = new string(bytes_a.length + bytes_b.length);\n    bytes memory bytes_c = bytes(length_ab);\n    uint k = 0;\n    for (uint i = 0; i < bytes_a.length; i++) bytes_c[k++] = bytes_a[i];\n    for (uint i = 0; i < bytes_b.length; i++) bytes_c[k++] = bytes_b[i];\n    return string(bytes_c);\n  }\n}\n",
  "sourcePath": "C:/Users/mvv/Desktop/Research/Project/AngulerTruffle/contracts/SimpleStorage.sol",
  "compiler": {
    "name": "solc",
    "version": "0.5.0+commit.1d4f565a.Emscripten.clang"
  },
  "schemaVersion": "3.0.1",
  "updatedAt": "2019-02-23T07:59:44.635Z",
  "devdoc": {
    "methods": {}
  },
  "userdoc": {
    "methods": {}
  }
}